:020000040800F2
:100000000000022091840008CD0D0008CF0D0008EB
:10001000D10D0008D30D0008D50D00080000000028
:10002000000000000000000000000000D70D0008E4
:10003000D90D000800000000DB0D0008DD0D0008F0
:10004000E1840008E1840008E1840008E1840008FC
:10005000E1840008E1840008E1840008E1840008EC
:10006000E1840008E1840008E1840008E1840008DC
:10007000E1840008E1840008E1840008E1840008CC
:10008000E1840008E1840008E1840008E1840008BC
:10009000E1840008E1840008E1840008E50D00081F
:1000A000E1840008E1840008E1840008E18400089C
:1000B000E1840008E1840008E1840008E18400088C
:1000C000E1840008E1840008E1840008E18400087C
:1000D000E1840008050E0008E1840008150E000800
:1000E000E1840008E184000800000000E1840008C9
:1000F000E1840008E1840008E1840008E18400084C
:10010000E1840008E1840008E1840008E18400083B
:10011000E1840008E1840008E1840008E18400082B
:10012000E1840008E1840008E1840008E18400081B
:10013000E1840008E1840008E1840008E18400080B
:1001400000000000000000000000000000000000AF
:10015000E1840008E1840008E1840008E1840008EB
:10016000E1840008E1840008E1840008E1840008DB
:10017000E1840008E1840008E18400080000000038
:10018000E1840008E1840008E1840008E1840008BB
:10019000E1840008E1840008E1840008E1840008AB
:1001A000E1840008E1840008E1840008E18400089B
:1001B000E1840008E1840008E1840008E18400088B
:1001C000E1840008E1840008E1840008E18400087B
:1001D000E1840008E1840008E1840008E18400086B
:1001E000E1840008E1840008E1840008E18400085B
:1001F000E1840008E1840008E1840008E18400084B
:10020000E1840008E1840008E1840008E18400083A
:10021000E1840008E1840008E1840008E18400082A
:10022000E1840008E1840008E18400080000000087
:10023000E1840008E184000800000000E184000877
:10024000E1840008E1840008E1840008E1840008FA
:10025000E1840008E1840008E1840008E1840008EA
:10026000E1840008E1840008E1840008E1840008DA
:10027000E1840008E1840008E18400080000000037
:10028000E1840008E1840008E18400080000000027
:0802900000000000E1840008F9
:1002A00010B5054C237833B9044B13B10448AFF3B0
:1002B00000800123237010BDB00200200000000068
:1002C00040A4000808B5034B1BB103490348AFF332
:1002D000008008BD00000000B402002040A4000817
:1002E00001F0FF01102A2BDB10F0070F08D010F8E7
:1002F000013B013A8B422DD010F0070F42B3F6D1EB
:10030000F0B441EA012141EA014122F007047FF003
:1003100000070023F0E80256083C85EA010586EA5A
:10032000010685FA47F5A3FA87F586FA47F6A5FA96
:1003300087F68EB9EED1F0BC01F0FF0102F00702A2
:1003400032B110F8013B013A83EA010313B1F8D14D
:100350000020704701387047002D06BF354603382E
:10036000073815F0010F07D1013015F4807F02BF67
:10037000013015F4C03F0130F0BC0138704700BFB8
:1003800080F0004002E000BF81F0004142001FBF4A
:100390005FEA410392EA030F7FEA226C7FEA236C53
:1003A0006AD04FEA1262D2EB1363C1BFD218414048
:1003B00048404140B8BF5B42192B88BF704710F0DE
:1003C000004F40F4000020F07F4018BF404211F081
:1003D000004F41F4000121F07F4118BF494292EAE9
:1003E000030F3FD0A2F1010241FA03FC10EB0C0015
:1003F000C3F1200301FA03F100F0004302D54942A2
:1004000060EB4000B0F5000F13D3B0F1807F06D34E
:1004100040084FEA310102F10102FE2A51D2B1F146
:10042000004F40EBC25008BF20F0010040EA03003B
:100430007047490040EB0000013A28BFB0F5000FBB
:10044000EDD2B0FA80FCACF1080CB2EB0C0200FA71
:100450000CF0AABF00EBC25052421843BCBFD040C0
:100460001843704792F0000F81F4000106BF80F43A
:1004700000000132013BB5E74FEA41037FEA226CFD
:1004800018BF7FEA236C21D092EA030F04D092F0C8
:10049000000F08BF0846704790EA010F1CBF0020FC
:1004A000704712F07F4F04D1400028BF40F0004059
:1004B000704712F100723CBF00F50000704700F079
:1004C000004343F0FE4040F4000070477FEA2262A0
:1004D00016BF08467FEA23630146420206BF5FEA71
:1004E000412390EA010F40F4800070474FF0000371
:1004F00004E000BF10F0004348BF40425FEA000C38
:1005000008BF704743F0964301464FF000001CE0DF
:1005100050EA010208BF70474FF000030AE000BF35
:1005200050EA010208BF704711F0004302D5404273
:1005300061EB41015FEA010C02BF844601460020E5
:1005400043F0B64308BFA3F18053A3F50003BCFA00
:100550008CF2083AA3EBC25310DB01FA02FC6344AD
:1005600000FA02FCC2F12002BCF1004F20FA02F2B4
:1005700043EB020008BF20F00100704702F12002A7
:1005800001FA02FCC2F1200250EA4C0021FA02F208
:1005900043EB020008BF20EADC70704753B94AB948
:1005A000002908BF00281CBF4FF0FF314FF0FF307B
:1005B00000F06EB9ADF1080C6DE904CE00F006F85C
:1005C000DDF804E0DDE9022304B070472DE9F047CF
:1005D000089D04468C46002B40F083808A421746D3
:1005E00047D9B2FA82F242B1C2F1200024FA00F0F7
:1005F0009140974040EA010C94404FEA1748230C81
:10060000BCFBF8F61FFA87FE08FB16C143EA01435C
:1006100006FB0EF1994209D9FB1806F1FF3080F074
:100620001981994240F21681023E3B445B1AA4B202
:10063000B3FBF8F008FB103344EA034400FB0EFE62
:10064000A64509D93C1900F1FF3380F00581A64584
:1006500040F2028102383C4440EA0640A4EB0E041A
:1006600000261DB1D4400023C5E900433146BDE852
:10067000F08702B9FFDEB2FA82F2002A50D1CB1B1A
:100680004FEA174E1FFA87F80126B3FBFEFC210C38
:100690000EFB1C3341EA034108FB0CF38B4207D9E4
:1006A00079180CF1FF3002D28B4200F2E9808446C7
:1006B000C91AA3B2B1FBFEF00EFB101143EA0144CC
:1006C00008FB00F8A04507D93C1900F1FF3302D21E
:1006D000A04500F2D9801846A4EB080440EA0C407B
:1006E000BFE78B4209D9002D00F0B1800026C5E993
:1006F000000130463146BDE8F087B3FA83F6002E9C
:100700004AD18B4202D3824200F2B880841A61EB54
:10071000030101208C46002DA8D0C5E9004CA5E7B7
:10072000C2F1200320FA03F6974001FA02F04FEAE3
:10073000174ED9403043030CB1FBFEF61FFA87F881
:100740000EFB161143EA014306FB08F1994204FA35
:1007500002F409D9FB1806F1FF3C80F08D80994224
:1007600040F28A80023E3B445B1A81B2B3FBFEF04A
:100770000EFB103341EA034100FB08F38B4207D91B
:10078000791800F1FF3C73D28B4271D90238394499
:10079000CB1A40EA064678E7C6F1200C03FA06F4C5
:1007A00022FA0CF31C4320FA0CF701FA06F34FEA85
:1007B000144E21FA0CF11F433B0CB1FBFEF91FFA5A
:1007C00084F80EFB191143EA014109FB08FA8A4536
:1007D00002FA06F200FA06F308D9611809F1FF30AF
:1007E00048D28A4546D9A9F102092144A1EB0A0160
:1007F000BFB2B1FBFEF00EFB101147EA014700FB50
:1008000008F8B84507D9E71900F1FF312ED2B845ED
:100810002CD90238274440EA0940A7EB0807A0FB7F
:1008200002894F45C64649461AD317D05DB1B3EB8E
:100830000E0267EB010707FA0CFCF2404CEA0202D9
:10084000F740C5E9002700263146BDE8F0872E466F
:1008500028460BE70646E9E61846FDE64345E5D29D
:10086000B8EB020E69EB04010138DFE70846D2E776
:1008700060468DE78146B9E7664675E730464AE748
:10088000ACF1020C394413E702383C4424E700BFC2
:10089000704700BF70B5CCB04C22002139A807F0DA
:1008A00053FE2022002131A807F04EFEBC22002179
:1008B00002A807F049FE022002F05AFE002301932D
:1008C000254B9A6942F440429A619B6903F4404384
:1008D0000193224BDA6A42F00102DA62DB6A03F02A
:1008E00001030193019B1C4B9B6913F4005FFAD039
:1008F0000223399301223C9240253D9542930024E6
:100900004394042644963C22459246934793489349
:100910000C2349934A944B9439A800F049FE3F2395
:1009200031930323329333940823349335953695CA
:100930004FF4806337933895314631A801F058FA67
:1009400041F20303029319941F94209402A801F02A
:10095000EBFC4CB070BD00BF0048025800040058CA
:1009600008B502F057FEFFF795FF00F051F800F0D0
:100970003DF900F06FF900F0B5F801221049114877
:1009800002F0B4FE01221049104802F0AFFE002030
:1009900005F052FF0E490F4807F0DEFD0E4B1B68B5
:1009A000022B07D0032B08D0012B00D0FEE706F066
:1009B0003BFAFBE706F05EFAF8E706F081FAF5E7A6
:1009C000E1020020F8030020E00200206C03002078
:1009D000C8A50008D4A50008CC02002038B5094BF2
:1009E000834200D038BD084D1C46642301222946AD
:1009F000204603F0F0FC01222946204602F076FE54
:100A0000F0E700BFF8030020E1020020704700007B
:100A100070B58AB00024089409942E4BD3F8E020D6
:100A200042F02002C3F8E020D3F8E02002F02002D8
:100A30000092009AD3F8E02042F08002C3F8E02050
:100A4000D3F8E02002F080020192019AD3F8E0206E
:100A500042F00202C3F8E020D3F8E02002F00202E4
:100A60000292029AD3F8E02042F00102C3F8E0209B
:100A7000D3F8E02002F001020392039AD3F8E020B9
:100A800042F00402C3F8E020D3F8E03003F004039E
:100A90000493049B802305930F4B0693012607962E
:100AA0000E4D05A9284602F023FB4FF44073059331
:100AB0000B4B0693079605A9284602F019FB224620
:100AC0002146172000F0D2F9172000F001FA0AB0F1
:100AD00070BD00BF004402580000211100140258EC
:100AE0000000111108B51448144B03604FF4800343
:100AF0004360002383600722C260036143614FF0BB
:100B0000806282614FF0C042C261036243628362CD
:100B1000C3624FF0804242638363C36303644364F0
:100B20008364C36403654365836500F089FA00B993
:100B300008BDFFF76BFFFBE7E4020020003C00402C
:100B400030B589B00023039304930593069307936C
:100B50000268224B9A4201D009B030BD204BD3F835
:100B6000E82042F40042C3F8E820D3F8E82002F479
:100B700000420092009AD3F8E02042F00202C3F84B
:100B8000E020D3F8E02002F002020192019AD3F8AB
:100B9000E02042F00402C3F8E020D3F8E03003F094
:100BA00004030293029B042303930225049500246B
:100BB000059406940723079303A90A4802F098FABC
:100BC0004FF440630393049505940694062307931A
:100BD00003A9054802F08CFABEE700BF003C0040C4
:100BE00000440258000402580008025808B517488B
:100BF000174B03604FF4E133436000238360C3600D
:100C000003610C2242618361C361036243628362B8
:100C100003F08BFC70B900210C4803F013FD60B9A0
:100C200000210A4803F033FD50B9084803F0EBFCFB
:100C300048B908BDFFF7EAFEEDE7FFF7E7FEEFE78B
:100C4000FFF7E4FEF1E7FFF7E1FEF2E7F80300202B
:100C50000010014008B51748174B03604FF4E1330B
:100C6000436000238360C36003610C22426183619F
:100C7000C36103624362836203F057FC70B90021D1
:100C80000C4803F0DFFC60B900210A4803F0FFFCC8
:100C900050B9084803F0B7FC48B908BDFFF7B6FEE5
:100CA000EDE7FFF7B3FEEFE7FFF7B0FEF1E7FFF781
:100CB000ADFEF2E76C0300200048004010B58AB09A
:100CC0000023059306930793089309930368344A16
:100CD000934204D0334A934231D00AB010BD324B14
:100CE000D3F8F02042F01002C3F8F020D3F8F0203F
:100CF00002F010020192019AD3F8E02042F00102C2
:100D0000C3F8E020D3F8E03003F001030293029B24
:100D10004FF4C063059302230693002407940894BC
:100D20000723099305A9214802F0E2F9224621464A
:100D3000252000F09BF8252000F0CAF8CDE71A4BDB
:100D4000D3F8E82042F48022C3F8E820D3F8E82062
:100D500002F480220392039AD3F8E02042F00202C8
:100D6000C3F8E020D3F8E03003F002030493049BBF
:100D70004FF44063059302230693002407940894DC
:100D80000723099305A90A4802F0B2F92246214631
:100D9000272000F06BF8272000F09AF89DE700BFAD
:100DA0000010014000480040004402580000025872
:100DB0000004025810B514464FF6FF7392B2024871
:100DC00003F009FB204610BDF80300207047FEE742
:100DD000FEE7FEE7FEE770477047704708B502F090
:100DE00047FC08BD08B5402002F07AFA802002F0E6
:100DF00077FA4FF4807002F073FA4FF4007002F04B
:100E00006FFA08BD08B5024802F02AFE08BD00BF0F
:100E1000F803002008B5024802F022FE08BD00BF1A
:100E20006C03002082B0074BD3F8F42042F002029A
:100E3000C3F8F420D3F8F43003F002030193019BCC
:100E400002B07047004402580649CB6823F4E063BF
:100E50001B041B0C000200F4E0600343024A1A4327
:100E6000CA60704700ED00E00000FA0530B4154B91
:100E7000DB68C3F30223C3F10704042C28BF042456
:100E80001D1D062D14D9033B4FF0FF3505FA04F460
:100E900021EA0401994005FA03F322EA0303194306
:100EA000002807DB0901C9B2074B195430BC704751
:100EB0000023E9E700F00F000901C9B2034B195400
:100EC000F4E700BF00ED00E000E400E014ED00E016
:100ED000002807DB00F01F02400901239340024A6B
:100EE00042F82030704700BF00E100E00138B0F167
:100EF000807F0AD2064B5860064AF02182F8231000
:100F00000020986007221A6070470120704700BFD8
:100F100010E000E000ED00E010B402685369916950
:100F200041F00801916101688A6942F010028A610A
:100F300001680A6822F001020A6001680C69294A06
:100F400022400A6101688A6822F440428A6090F86F
:100F50008120D2B2042A0DD013F0200F0AD0D0F88D
:100F6000842042F08002C0F8842001688A6942F03F
:100F700020028A6190F88120D2B2032A0DD013F0AA
:100F8000400F0AD0D0F8842042F00402C0F8842038
:100F900001688A6942F040028A6113F4007F0AD036
:100FA000D0F8842042F00102C0F8842001688A69E8
:100FB00042F400728A6113F4807F0AD0D0F8843042
:100FC00043F00803C0F884300268936943F48073E7
:100FD00093610023A0F86230A0F86A305DF8044BFA
:100FE000704700BF90FCFFFFC36B5B09C06808300F
:100FF000C00803FB000070472DE9F84380460F4608
:1010000016469946089C00E0BCB1D8F800305B69F0
:1010100037EA03030CBF01250025B5420AD102F0CF
:1010200033FBA0EB0900A042EED3B4F1FF3FEBD0BD
:10103000032000E00020BDE8F8830320FBE7000068
:10104000002800F0978070B504460023836205688D
:101050004C4B4D4E9D4218BFB54214BF0126002691
:1010600007D0A3F574439D4203D0C3680F2B00F251
:1010700083802046FFF7B8FF26B1444B9D4201D044
:1010800008287BD83F4A404B9D4218BF954203D069
:1010900003F580639D4201D1102871D894F8813006
:1010A000002B54D0022384F881302268136823F087
:1010B00001031360A369B3F1806F4ED0E369A26AA4
:1010C0001343E26B1343E16822680B439360636B45
:1010D000626A1343A26B1343A26913432269134349
:1010E00062691343226A134362681343E26C134339
:1010F000A2681343A26C1343A16D22680B43D36013
:1011000063686BB92268936823F4C05343F40063A7
:1011100093602268936823F4C06343F48063936010
:101120002268136D23F001031365636813F4800FC5
:1011300006D02268D36823F00043616D0B43D3606F
:101140000020C4F88400012384F8813070BD84F845
:1011500080302046FFF7F4FCA4E76368B3F5800F06
:10116000ACD1A36B002BA9D12268136843F4805340
:101170001360A3E7012070470120E7E70120E5E7BE
:101180000120E3E70030014000380040003C00400F
:101190002DE9F04782B01D460A9ED0F800A090F8D5
:1011A0008030012B00F000820446884691460123DE
:1011B00080F8803002F068FA074694F88130DBB29C
:1011C0006268012B07D0B2F5800F40D1A268002AD7
:1011D0003DD1042B3BD1B9FA89F35B09B8F1000F7B
:1011E00008BF0123002B39D1002D37D094F881306E
:1011F000DBB2042B02D0052384F881300023C4F82D
:101200008430C4F86490A4F86A50A4F86850C4F814
:101210005C80A4F86250A4F860502367636722687A
:101220005168A3F580330B402B4353602268136849
:1012300043F0010313606368B3F5800F13D0E368D4
:101240000F2B67D8072B00F2E580A84632E1002378
:1012500084F88030022002B0BDE8F087002384F8D3
:1012600080300120F7E72268136843F400731360AD
:10127000E5E72368596948F20802114213D0B8F132
:10128000000F10D0626E1B6B1360636E04336366D5
:10129000B4F86A309BB2013B9BB2A4F86A30B4F850
:1012A0006A801FFA88F802F0EFF9C01BB04202D33F
:1012B000B6F1FF3F1ED1EEB145EA08039BB2002B09
:1012C00000F0568123685A6912F0020FD1D0002D28
:1012D000CFD0E26D12681A62E36D0433E365B4F8AF
:1012E00062309BB2013B9BB2A4F86230B4F862500A
:1012F000ADB2BEE72046FFF70FFE002384F8803032
:10130000D4F8843043F48073C4F88430012084F826
:101310008100A0E7A846CFE7E36D1B88AAF820303C
:10132000E36D0233E365B4F862309BB2013B9BB2DC
:10133000A4F86230B4F86250ADB223685A6912F46E
:10134000604F17D0B8F1000F14D05A6912F4004F53
:101350003DD0626E1B6B1360636E04336366B4F83A
:101360006A309BB2023B9BB2A4F86A30B4F86A8040
:101370001FFA88F802F088F9C01BB04202D3B6F118
:10138000FF3F37D1002E35D045EA08039BB2002B32
:1013900000F0EE8023685A6912F0020FCDD0002DC4
:1013A000CBD0012DB8D9E26B002AB5D0E26D12681E
:1013B0001A62E36D0433E365B4F862309BB2023B1A
:1013C0009BB2A4F86230B4F86250ADB2B5E7636E78
:1013D000BAF830201A80636E02336366B4F86A305C
:1013E0009BB2013B9BB2A4F86A30B4F86A801FFA42
:1013F00088F8BFE72046FFF78FFD002384F8803090
:10140000D4F8843043F48073C4F88430012084F825
:10141000810020E7A846B7E7012D13D9E26B8AB116
:10142000E36D1B88AAF82030E36D0233E365B4F85E
:1014300062309BB2023B9BB2A4F86230B4F86250B7
:10144000ADB210E0E26D127883F82020E36D013335
:10145000E365B4F862309BB2013B9BB2A4F8623002
:10146000B4F86250ADB223685A6912F4604F17D0D5
:10147000B8F1000F14D05A6912F4004F3CD0626EDC
:101480001B6B1360636E04336366B4F86A309BB2FF
:10149000043B9BB2A4F86A30B4F86A801FFA88F85B
:1014A00002F0F2F8C01BB04202D3B6F1FF3F4FD1B9
:1014B000002E4DD045EA08039BB2002B58D023687C
:1014C0005A6912F0020FCED0002DCCD0032DA3D933
:1014D000E26B402AA0D9E26D12681A62E36D043310
:1014E000E365B4F862309BB2043B9BB2A4F862306F
:1014F000B4F86250ADB2B6E75A6902F4C042B2F530
:10150000005F12D9636EBAF830201A80636E02331E
:101510006366B4F86A309BB2023B9BB2A4F86A30AF
:10152000B4F86A801FFA88F8BAE7626E93F8303030
:101530001370636E01336366B4F86A309BB2013B8B
:101540009BB2A4F86A30B4F86A801FFA88F8A7E75B
:101550002046FFF7E1FC002384F88030D4F8843083
:1015600043F48073C4F88430012084F8810072E66B
:1015700000963B46002208212046FFF73DFD28B19A
:10158000D4F8843043F02003C4F884302046FFF7B9
:10159000C3FC002384F88030012384F88130D4F820
:1015A00084301BB9002056E6022054E6012052E6A2
:1015B000002800F0048338B50446036813F0010FD7
:1015C00025D0AE4A136903F03803926A102B15D068
:1015D000182B0FD06368B3F5803F3FD0002B53D159
:1015E000A64B1A6822F480321A601A6822F480220C
:1015F0001A6038E002F00302022AEBD19F4B1B680D
:1016000013F4003F03D06368002B00F0DA822368F4
:1016100013F0020F00F08B80984A1369926A13F05E
:1016200038035AD0182B55D0E368002B00F0C8803F
:1016300092490A6822F0190213430B6002F024F861
:1016400005468E4B1B6813F0040F40F0978002F0A4
:101650001BF8401B0228F4D90320B9E2874A13681B
:1016600043F48033136063682BB302F00DF8054632
:10167000824B1B6813F4003FC9D102F005F8401BF0
:101680006428F5D90320A3E2B3F5A02F09D07B4B42
:101690001A6822F480321A601A6822F480221A60D2
:1016A000E1E7764B1A6842F480221A601A6842F425
:1016B00080321A60D7E701F0E7FF05466F4B1B68E1
:1016C00013F4003FA3D001F0DFFF401B6428F5D9DD
:1016D00003207DE212F0030FA6D1684B1B6813F0C4
:1016E000040F03D0E368002B00F06D8201F0E6FFE9
:1016F00041F20303984212D82269402A07D05F4979
:101700004B6823F47C3343EA02334B600FE05B4ABF
:10171000536823F47C3343F40033536007E0574AA3
:10172000536823F0FE43216943EA01635360236851
:1017300013F0100F00F08680504A136903F038034D
:10174000926A082B54D0182B4ED0E369002B00F07E
:10175000B9804A4A136843F08003136001F094FF94
:101760000546464B1B6813F4807F40F0898001F0EA
:101770008BFF401B0228F4D9032029E201F09EFFD1
:1017800041F20303984212D82269402A07D03B490C
:101790004B6823F47C3343EA02334B60C7E7374A94
:1017A000536823F47C3343F400335360BFE7334A78
:1017B000536823F0FE43216943EA01635360B6E7AF
:1017C0002E4A136823F00103136001F05DFF054604
:1017D0002A4B1B6813F0040FA9D001F055FF401BE2
:1017E0000228F5D90320F3E102F00302012AACD16B
:1017F000224B1B6813F4807F03D0E369802B40F0F9
:10180000E48101F05BFF41F20303984212D8226A9F
:10181000202A07D019494B6823F0F84343EA826332
:101820004B600FE0154A536823F0F84343F08043C0
:10183000536007E0114AD36823F07C53216A43EADE
:101840000163D360236813F0080F63D06369002B32
:101850004CD00A4A536F43F00103536701F014FF61
:101860000546064B5B6F13F0020F53D101F00CFFDE
:10187000401B0228F5D90320AAE100BF004402580A
:1018800001F01CFF41F20303984212D8226A202A79
:1018900007D085494B6823F0F84343EA82634B60E5
:1018A000D0E7814A536823F0F84343F08043536004
:1018B000C8E77D4AD36823F07C53216A43EA016379
:1018C000D360BFE7784A136823F08003136001F008
:1018D000DBFE0546744B1B6813F4807FB2D001F029
:1018E000D3FE401B0228F5D9032071E16E4A536FE5
:1018F00023F00103536701F0C7FE05466A4B5B6F97
:1019000013F0020F06D001F0BFFE401B0228F5D9EC
:1019100003205DE1236813F0200F29D0A3699BB158
:10192000614A136843F48053136001F0ADFE05462D
:101930005D4B1B6813F4005F1AD101F0A5FE401B3C
:101940000228F5D9032043E1574A136823F4805352
:10195000136001F099FE0546534B1B6813F4005FBA
:1019600006D001F091FE401B0228F5D903202FE19B
:10197000236813F0040F21D1636A002B00F0278144
:10198000494A126902F03802182A00F0EF80022B4F
:1019900075D0454A136823F08073136001F074FE1C
:1019A0000446414B1B6813F0007F00F0DD8001F01E
:1019B0006BFE001B0228F4D9032009E13B4A13689F
:1019C00043F48073136001F05FFE0546374B1B68DC
:1019D00013F4807F06D101F057FE401B6428F5D92F
:1019E0000320F5E0A368012B0AD00BBB2E4B1A6F26
:1019F00022F001021A671A6F22F004021A6704E04B
:101A0000294A136F43F001031367A36833B301F04E
:101A10003BFE0546244B1B6F13F0020FACD101F0C7
:101A200033FE401B41F288339842F3D90320CFE0C4
:101A3000052B09D01C4B1A6F22F001021A671A6F8E
:101A400022F004021A67E0E7174B1A6F42F0040213
:101A50001A671A6F42F001021A67D6E701F014FE06
:101A60000546114B1B6F13F0020F85D001F00CFEE1
:101A7000401B41F288339842F3D90320A8E00A4A78
:101A8000136823F08073136001F0FEFD0546064BDA
:101A90001B6813F0007F0BD001F0F6FD401B0228FD
:101AA000F5D9032094E000BF0044025800480258D2
:101AB0004F4B996A4F4A0A40A16AE06A41EA001115
:101AC0000A439A62226B013AC2F30802616B013940
:101AD000490289B20A43A16B0139090401F4FE01EC
:101AE0000A43E16B0139090601F0FE410A431A631A
:101AF000DA6A22F00102DA62596B3F4A0A40A16CAD
:101B000042EAC1025A63DA6A22F00C02216C0A43EB
:101B1000DA62DA6A22F00202616C0A43DA62DA6A95
:101B200042F48032DA62DA6A42F40032DA62DA6A65
:101B300042F48022DA62DA6A42F00102DA621A685A
:101B400042F080721A6001F09FFD0446284B1B682A
:101B500013F0007F06D101F097FD001B0228F5D994
:101B6000032035E0002033E0002031E0204A916A74
:101B7000106B012B2DD001F00303A26A93422AD1EE
:101B8000C1F30511E36A994227D1C0F30802236B20
:101B9000013B9A4223D1C0F34622636B013B9A4238
:101BA0001FD1C0F30642A36B013B9A421BD1C0F385
:101BB0000660E36B013B984217D1002008E001204A
:101BC0007047012004E0012002E0012000E0002035
:101BD00038BD0120FCE70120FAE70120F8E70120E9
:101BE000F6E70120F4E70120F2E70120F0E700BF6B
:101BF000004402580CFCFFFF0700FFFF744B1B69F9
:101C000003F03803102B00F0DF80182B10D00BB13D
:101C1000704870476E4B1B6813F0200F00F0D680A1
:101C20006B4B1868C0F3C1006B4B23FA00F0704790
:101C300010B4674A916A01F00301946AC4F3051075
:101C4000D36A03F00103526BC2F3CC0203FB02F32D
:101C500007EE903AF8EE677A14F47C7F00F09480F7
:101C6000012966D0022900F09280E1B107EE100A46
:101C7000F8EE476A9FED596A86EE267A544B1B6B45
:101C8000C3F3080306EE903AF8EE666A9FED546AD5
:101C900067EE867A76EEA77AF7EE006A77EEA67A96
:101CA00027EE277A61E04A4B1B6813F0200F23D000
:101CB00047490A68C2F3C102474BD34007EE103AC6
:101CC000F8EE476A07EE100AB8EE476A86EE867AA3
:101CD0000B6BC3F3080306EE903AF8EE666A9FEDCD
:101CE000406A67EE867A76EEA77AF7EE006A77EEBC
:101CF000A67A27EE277A38E007EE100AF8EE476A50
:101D00009FED386A86EE267A314B1B6BC3F30803CE
:101D100006EE903AF8EE666A9FED316A67EE867AD3
:101D200076EEA77AF7EE006A77EEA67A27EE277AA4
:101D30001BE007EE100AF8EE476A9FED286A86EE70
:101D4000267A234B1B6BC3F3080306EE903AF8EE9A
:101D5000666A9FED236A67EE867A76EEA77AF7EEDB
:101D6000006A77EEA67A27EE277A194B1B6BC3F32E
:101D70004623013307EE903AF8EE677AC7EE276AFA
:101D8000FCEEE67A17EE900A5DF8044B704707EE1A
:101D9000100AF8EE476A9FED146A86EE267A0C4B1D
:101DA0001B6BC3F3080306EE903AF8EE666A9FEDEC
:101DB0000C6A67EE867A76EEA77AF7EE006A77EE1F
:101DC000A67A27EE277AD0E708487047024870477E
:101DD0000044025800093D000090D0030024744ADA
:101DE000000000390024744C20BCBE4B40787D01BB
:101DF000002800F0328170B50D4604469B4B1B68ED
:101E000003F00F038B420BD2984A136823F00F03A1
:101E10000B431360136803F00F038B4240F01F81E4
:101E2000236813F0040F0CD02269914B9B6903F0D7
:101E300070039A4205D98E498B6923F070031A43C7
:101E40008A61236813F0080F0CD06269884BDB6944
:101E500003F070039A4205D98549CB6923F07003DA
:101E60001A43CA61236813F0100F0CD0A269804B8B
:101E7000DB6903F4E0639A4205D97D49CB6923F419
:101E8000E0631A43CA61236813F0200F0CD0E269A3
:101E9000774B1B6A03F070039A4205D974490B6AA9
:101EA00023F070031A430A62236813F0020F0CD068
:101EB000E2686F4B9B6903F00F039A4205D96C49A6
:101EC0008B6923F00F031A438A61236813F0010F13
:101ED00041D0674A936923F47063A1680B4393610F
:101EE0006368022B0AD0032B27D0012B2CD0604A29
:101EF000126812F0040F06D10120ADE0126812F44E
:101F0000003F00F0AE805A490A6922F007021343ED
:101F10000B6101F0B9FB0646554B1B6903F0380312
:101F20006268B3EBC20F16D001F0AEFB801B41F22A
:101F300088339842F0D903208EE04D4A126812F09F
:101F4000007FE0D1012087E0494A126812F4807FC7
:101F5000D9D1012080E0236813F0020F0CD0E26891
:101F6000434B9B6903F00F039A4205D240498B69AA
:101F700023F00F031A438A613C4B1B6803F00F03E5
:101F8000AB420AD9394A136823F00F032B4313607D
:101F9000136803F00F03AB4265D1236813F0040FFD
:101FA0000CD02269324B9B6903F070039A4205D230
:101FB0002F498B6923F070031A438A61236813F059
:101FC000080F0CD062692A4BDB6903F070039A4258
:101FD00005D22749CB6923F070031A43CA612368ED
:101FE00013F0100F0CD0A269214BDB6903F4E063FE
:101FF0009A4205D21E49CB6923F4E0631A43CA61B1
:10200000236813F0200F0CD0E269194B1B6A03F010
:1020100070039A4205D216490B6A23F070031A43E3
:102020000A62FFF7EBFD12498B69C3F30323114AE0
:10203000D35C03F01F03D8408B6903F00F03D35C1C
:1020400003F01F0320FA03F30B4A13600B4B1860D5
:102050000B4B186801F0B6FA70BD012070470120E3
:10206000FAE70120F8E70120F6E700BF0020005260
:1020700000440258D0A6000844020020400200207C
:102080000400002008B5FFF7B9FD0B4A9369C3F3BC
:1020900003230A49CB5C03F01F0320FA03F3926980
:1020A00002F00F02885C00F01F0023FA00F0044ADF
:1020B0001060044A136008BD00440258D0A600080E
:1020C000440200204002002008B5FFF7DBFF054B6B
:1020D000DB69C3F30213044AD35C03F01F03D84047
:1020E00008BD00BF00440258D0A6000808B5FFF79D
:1020F000C9FF054BDB69C3F30223044AD35C03F039
:102100001F03D84008BD00BF00440258D0A60008F5
:10211000404B9B6A03F00303032B79D070B505464F
:102120000E463C4A136823F08063136001F0ACFA5A
:102130000446384B1B6813F0006F06D001F0A4FA78
:10214000031B022BF5D9032070BD324B9A6A22F48F
:102150007C32296842EA01329A626A68013AC2F323
:102160000802A9680139490289B20A43E9680139BC
:10217000090401F4FE010A4329690139090601F045
:10218000FE410A439A63DA6A22F0C00269690A438F
:10219000DA62DA6A22F02002A9690A43DA62DA6AAC
:1021A00022F01002DA62D96B1B4A0A40E96942EA5E
:1021B000C102DA63DA6A42F01002DA62C6B91A467C
:1021C000DB6A43F40023D362124A136843F080634E
:1021D000136001F059FA04460E4B1B6813F0006FB0
:1021E00014D101F051FA001B0228F5D90320ABE706
:1021F000012E05D0074AD36A43F40013D362E3E704
:10220000044AD36A43F48013D362DDE700209BE7DE
:1022100001207047004402580700FFFF404B9B6AB3
:1022200003F00303032B79D070B505460E463C4AF4
:10223000136823F08053136001F026FA0446384BEC
:102240001B6813F0005F06D001F01EFA031B022B7F
:10225000F5D9032070BD324B9A6A22F07C7229684E
:1022600042EA01529A626A68013AC2F30802A96816
:102270000139490289B20A43E9680139090401F4C4
:10228000FE010A4329690139090601F0FE410A43AA
:102290001A64DA6A22F4406269690A43DA62DA6A25
:1022A00022F40072A9690A43DA62DA6A22F48072BF
:1022B000DA62596C1B4A0A40E96942EAC1025A646F
:1022C000DA6A42F48072DA62C6B91A46DB6A43F40B
:1022D0008003D362124A136843F08053136001F005
:1022E000D3F904460E4B1B6813F0005F14D101F0C4
:1022F000CBF9001B0228F5D90320ABE7012E05D04E
:10230000074AD36A43F08073D362E3E7044AD36A8F
:1023100043F40003D362DDE700209BE70120704710
:10232000004402580700FFFFF8B50446036813F0A5
:10233000006F30D0436EB3F5001F26D00ED8EBB13E
:10234000B3F5801F07D102210430FFF7E1FE0546F7
:1023500045B12E4621E0012635461EE0B3F5401F6B
:1023600009D10025964A136D23F44013616E0B4387
:102370001365002611E0012635460EE0904AD36A27
:1023800043F40033D3620025ECE702212430FFF749
:1023900045FF0546DCE700263546236813F4807FB9
:1023A00014D0636D042B30D8DFE803F00322280833
:1023B0000800834AD36A43F40033D36245BB804AA2
:1023C000136D23F00703616D0B431365236813F44A
:1023D000007F2FD0A36D802B4AD01ED8002B41D078
:1023E000402B17D10021201DFFF792FE054619E072
:1023F0000021201DFFF78CFE0546DFE7002104F1D8
:102400002400FFF70BFF0546D8E701263546DDE738
:102410002E46DBE7012635460CE0C02B02D0B3F593
:10242000807F1CD15DBB664A136D23F4E073A16D00
:102430000B431365236813F4806F34D0D4F8A430B1
:10244000B3F5800F4DD01FD8002B44D0B3F5001F3B
:1024500017D10021201DFFF75BFE05461AE001267B
:102460003546E7E7564AD36A43F40033D362D9E7E7
:10247000002104F12400FFF7D1FE0546D2E72E46E5
:10248000D8E7012635460EE0B3F5C00F02D0B3F50C
:10249000000F1DD165BB4A4A936D23F46003D4F845
:1024A000A4100B439365236813F4006F35D0D4F860
:1024B000A830B3F1007F53D01FD8002B4AD0B3F11E
:1024C000807F17D10021201DFFF722FE05461AE06C
:1024D00001263546E7E73A4AD36A43F40033D3622C
:1024E000D8E7002104F12400FFF798FE0546D1E764
:1024F0002E46D8E7012635460FE0B3F1407F02D0E3
:10250000B3F1806F23D1002D31D12D4A936D23F08B
:10251000E063D4F8A8100B439365236813F0007FA1
:102520002ED0A36C202B3FD026D833B1102B20D136
:10253000234AD36A43F40033D362002D3AD1204AB0
:10254000D36C23F03003A16C0B43D36418E0012655
:102550003546E2E71A4AD36A43F40033D362D2E73E
:10256000002104F12400FFF759FE0546CBE72E4673
:10257000D3E70126354603E0302BDED00126354671
:10258000236813F4805F2CD0E36DB3F5005F4DD06A
:1025900018D8002B44D0B3F5805F0DD10021201D49
:1025A000FFF7B6FD054613E00221201DFFF7B0FD41
:1025B0000546C2E72E46E3E70126354611E000BF97
:1025C00000440258B3F5405F02D0B3F5804F24D1E8
:1025D000002D32D1984A136D23F4E043E16D0B4393
:1025E0001365236813F4005F37D0236EB3F5003F03
:1025F00051D027D83BB1B3F5803F20D10121201D18
:10260000FFF786FD0546002D4CD18B4A136D23F450
:10261000E023216E0B4313651FE001263546E0E7FA
:10262000854AD36A43F40033D362D1E7002104F131
:102630002400FFF7F3FD0546CAE72E46D1E7012641
:1026400035460AE0B3F5802FDDD0B3F5A02FDAD000
:10265000B3F5403FD7D001263546236813F4804FA9
:1026600030D0D4F8AC30B3F1005F44D01FD83BB1C8
:10267000B3F1805F18D10121201DFFF749FD054608
:10268000002D3FD16C4A936D23F0E043D4F8AC1099
:102690000B43936516E0012104F12400FFF7BEFD12
:1026A0000546B0E72E46D8E7012635460AE0B3F1E5
:1026B000804FE5D0B3F1A04FE2D0B3F1405FDFD05F
:1026C00001263546236813F4004F09D0E36EB3F1B9
:1026D000805F19D0B3F1005F24D0D3B10126354615
:1026E000236813F0807F3DD0636C032B36D8DFE87E
:1026F00003F026212F26012104F12400FFF78EFD8F
:102700000546BDE72E46DDE74B4AD36A43F4003366
:10271000D3626DB9484A136D23F04053E16E0B4309
:102720001365DDE70121201DFFF7F2FC0546F0E708
:102730002E46D5E7404AD36A43F40033D36285B9C5
:102740003D4AD36C23F00303616C0B43D36409E06F
:102750000221201DFFF7DCFC0546F0E70126354687
:1027600000E02E46236813F4800F1FD1236813F076
:10277000010F00F09B80A36F282B00F29580DFE80B
:1027800003F083939393939393937E939393939371
:1027900093938C9393939393939383939393939320
:1027A000939383939393939393938300234A136810
:1027B00043F48073136000F067FF07461F4B1B68EC
:1027C00013F4807F05D100F05FFFC01B6428F5D9AA
:1027D0000325002D4FD1184B1B6FD4F8B020534068
:1027E00013F4407F0CD0144B1A6F22F44072196F0F
:1027F00041F480311967196F21F4803119671A6724
:10280000D4F8B030B3F5807F1AD0002D35D1D4F88C
:10281000B03003F44072B2F5407F22D0064A13690B
:1028200023F47C53136104490B6FD4F8B020C2F336
:102830000B0213430B6799E7004402580048025803
:1028400000F022FF0746874B1B6F13F0020FDCD10D
:1028500000F01AFFC01B41F288339842F3D90325D8
:10286000D3E78048026922F47C527F4901EA1313BE
:1028700013430361D7E72E4678E72E4676E701211A
:10288000201DFFF745FC0546E5B9764A536D23F058
:102890003803A16F0B43536508E0012104F12400C4
:1028A000FFF7BCFC0546EFE701263546236813F029
:1028B000020F22D0636F052B1BD8DFE803F00A0557
:1028C000130A0A0A2E46F1E70121201DFFF720FC1A
:1028D00005468DB9634A536D23F00703616F0B43BF
:1028E00053650AE0012104F12400FFF797FC054637
:1028F000EFE70126354600E02E46236813F0040F6B
:1029000022D0D4F89030052B1AD8DFE803F0080362
:10291000120808080121201DFFF7FAFB054695B9AA
:10292000504A936D23F00703D4F890100B4393653E
:102930000AE0012104F12400FFF770FC0546EEE7F0
:102940000126354600E02E46236813F0200F27D0DD
:10295000D4F88C30B3F1005F40D016D83BB1B3F15E
:10296000805F0FD10021201DFFF7D2FB0546002D0F
:102970003BD13C4A536D23F0E043D4F88C100B4319
:1029800053650DE0012635460AE0B3F1804FEED0E5
:10299000B3F1A04FEBD0B3F1405FE8D0012635464C
:1029A000236813F0400F30D0D4F89830B3F5006F9F
:1029B0004BD01FD83BB1B3F5806F18D10021201D3B
:1029C000FFF7A6FB0546002D46D1264A936D23F45A
:1029D000E053D4F898100B43936516E0022104F1FC
:1029E0002400FFF71BFC0546C1E72E46D8E7012669
:1029F00035460AE0B3F5805FE5D0B3F5A05FE2D0DD
:102A0000B3F5406FDFD001263546236813F0800F01
:102A100037D0D4F89C30B3F5804F00F0A28025D891
:102A20003BB1B3F5005F19D10021201DFFF770FB0A
:102A30000546002D40F09C800A4A936D23F46043C4
:102A4000D4F89C100B4393651BE0022104F1240091
:102A5000FFF7E4FB0546B6E72E46D6E701263546E6
:102A60000FE000BF00440258CFFFFF00B3F5004F56
:102A7000DFD0B3F5204FDCD0B3F5C04FD9D001265D
:102A80003546236813F0080F0CD0D4F88030B3F526
:102A9000805F6FD08E4A536D23F44053D4F880107A
:102AA0000B435365236813F0100F0CD0D4F8943007
:102AB000B3F5807F67D0864A936D23F44073D4F8D2
:102AC00094100B439365236813F4002F0BD0D4F8B4
:102AD000A030B3F5803F6ED0B3F5003F61D0002B3E
:102AE0005AD001263546236813F4802F0CD0D4F831
:102AF0008430B3F5001F76D0B3F5401F69D0B3F52D
:102B0000801F61D001263546236813F4803F07D02B
:102B1000E36C002B70D0B3F5803F7BD001263546A7
:102B2000236813F0005F7DD1236813F4003F00F0A9
:102B30008680E36FB3F5807F00F0BA807CD9B3F56F
:102B4000007F03D0B3F5407F40F0B080002D40F00F
:102B5000B5805F4A536D23F44073E16F0B435365B7
:102B60006DE0022104F12400FFF758FB054660E701
:102B70002E4686E7022104F12400FFF74FFB0028D0
:102B800088D0012686E7022104F12400FFF746FBE6
:102B9000002890D001268EE70021201DFFF7B8FA0B
:102BA00005467DB94A4A936D23F44033D4F8A0100A
:102BB0000B43936597E7022104F12400FFF72EFBF6
:102BC0000546EEE72E468EE7414AD36A43F40033CA
:102BD000D3627DB93E4A536D23F44013D4F8841078
:102BE0000B43536590E7012104F12400FFF716FB26
:102BF0000546EEE72E4687E7354AD36A43F40033AD
:102C0000D3626DB9324AD36C23F48033E16C0B4349
:102C1000D36485E70221201DFFF77AFA0546F0E725
:102C20002E467DE7022104F12400FFF7F7FA002881
:102C30003FF47AAF012677E7002B87D0012623687F
:102C400013F4801F06D0224A136D23F00043216F36
:102C50000B431365236813F0805F07D01C4A136988
:102C600023F48043D4F8B4100B431361236813F4A6
:102C7000001F06D0164A136D23F08073A16E0B431C
:102C80001365236813F0804F09D0114B1A6922F4A1
:102C900000421A611A69D4F8B8100A431A6123680D
:102CA000002B0DDB06B101263046F8BD0126C6E734
:102CB000074AD36A43F40033D36247E72E46BEE7A0
:102CC000034AD36C23F04053216D0B43D364E9E7EF
:102CD0000044025808B5FFF7D5F9054B1B6AC3F34A
:102CE0000213044AD35C03F01F03D84008BD00BFA1
:102CF00000440258D0A6000830B4784A916A946A19
:102D0000C4F30535D36AC3F30013D26BC2F3CC020C
:102D100003FB02F314F47C3F00F0DA8001F00301BE
:102D200007EE903AF8EE677A012966D0022900F0A2
:102D3000B280E1B107EE105AB8EE477A9FED686AAB
:102D4000C6EE076A654B9B6BC3F3080307EE103AA8
:102D5000B8EE477A9FED636A67EE867A77EE277A58
:102D6000B7EE007A77EE877A66EEA76A61E05B4B92
:102D70001B6813F0200F23D058490A68C2F3C10220
:102D8000594BD34007EE103AB8EE477A06EE905A08
:102D9000B8EE666AC7EE066A8B6BC3F3080307EEEC
:102DA000103AB8EE477A9FED4F6A67EE867A77EE73
:102DB000277AB7EE007A77EE877A66EEA76A38E070
:102DC00007EE105AB8EE477A9FED486AC6EE076ADA
:102DD000424B9B6BC3F3080307EE103AB8EE477AF9
:102DE0009FED406A67EE867A77EE277AB7EE007A33
:102DF00077EE877A66EEA76A1BE007EE105AB8EE08
:102E0000477A9FED376AC6EE076A344B9B6BC3F374
:102E1000080307EE103AB8EE477A9FED326A67EE84
:102E2000867A77EE277AB7EE007A77EE877A66EEC3
:102E3000A76A2A4A936BC3F3462307EE103AB8EE0B
:102E4000477AB7EE006A37EE067AC6EE877AFCEE6E
:102E5000E77AC0ED007A936BC3F3064307EE103AAE
:102E6000B8EE477A37EE067AC6EE877AFCEEE77A56
:102E7000C0ED017A936BC3F3066307EE903AF8EE68
:102E8000677A77EE867A86EEA77ABCEEC77A80ED0F
:102E9000027A30BC704707EE105AB8EE477A9FEDC1
:102EA000146AC6EE076A0D4B9B6BC3F3080307EE6B
:102EB000103AB8EE477A9FED0B6A67EE867A77EEA6
:102EC000277AB7EE007A77EE877A66EEA76AB0E7E0
:102ED0000023036043608360DBE700BF00440258C7
:102EE0000024744A000000390090D0030024744C80
:102EF00020BCBE4B30B4784A916A946AC4F305553D
:102F0000D36AC3F30023526CC2F3CC0203FB02F377
:102F100014F07C7F00F0DA8001F0030107EE903AB4
:102F2000F8EE677A012966D0022900F0B280E1B19B
:102F300007EE105AB8EE477A9FED686AC6EE076A48
:102F4000654B1B6CC3F3080307EE103AB8EE477AE3
:102F50009FED636A67EE867A77EE277AB7EE007A9E
:102F600077EE877A66EEA76A61E05B4B1B6813F029
:102F7000200F23D058490A68C2F3C102594BD340ED
:102F800007EE103AB8EE477A06EE905AB8EE666A47
:102F9000C7EE066A0B6CC3F3080307EE103AB8EEEF
:102FA000477A9FED4F6A67EE867A77EE277AB7EE1B
:102FB000007A77EE877A66EEA76A38E007EE105A55
:102FC000B8EE477A9FED486AC6EE076A424B1B6C23
:102FD000C3F3080307EE103AB8EE477A9FED406A54
:102FE00067EE867A77EE277AB7EE007A77EE877A01
:102FF00066EEA76A1BE007EE105AB8EE477A9FED1F
:10300000376AC6EE076A344B1B6CC3F3080307EE3E
:10301000103AB8EE477A9FED326A67EE867A77EE1D
:10302000277AB7EE007A77EE877A66EEA76A2A4AA1
:10303000136CC3F3462307EE103AB8EE477AB7EEA7
:10304000006A37EE067AC6EE877AFCEEE77AC0EDC4
:10305000007A136CC3F3064307EE103AB8EE477AD2
:1030600037EE067AC6EE877AFCEEE77AC0ED017A93
:10307000136CC3F3066307EE903AF8EE677A77EEC7
:10308000867A86EEA77ABCEEC77A80ED027A30BCEB
:10309000704707EE105AB8EE477A9FED146AC6EEF5
:1030A000076A0D4B1B6CC3F3080307EE103AB8EE2A
:1030B000477A9FED0B6A67EE867A77EE277AB7EE4E
:1030C000007A77EE877A66EEA76AB0E7002303609E
:1030D00043608360DBE700BF004402580024744A69
:1030E000000000390090D0030024744C20BCBE4B7B
:1030F000F0B583B000233AE0092400E00024B44096
:103100003C4302356F4E46F825406F4C2568D4434A
:1031100025EA02064F6817F4803F01D042EA05060F
:10312000694D2E606E6804EA06054F6817F4003F8B
:1031300001D042EA0605644E75604FF0B0452D6837
:1031400004EA05064F6817F4801F01D042EA05061D
:103150004FF0B0452E606D682C404E6816F4001F8D
:1031600001D042EA05044FF0B042546001330A68CE
:1031700032FA03F400F0A38001249C402240F5D0F1
:103180004D686E1E112D18BF012E01D9122D12D1BE
:1031900086685F000325BD4026EA0506CD68BD4070
:1031A00035438560466826EA04064D68C5F3001479
:1031B0009C4034434460C7685E000325B540EC433F
:1031C00027EA05078D68B5403D43C5604D68122D5F
:1031D00018BF022D13D1DF08083750F827E003F09D
:1031E00007054FEA850C0F2505FA0CF52EEA050EAA
:1031F0000D6905FA0CF545EA0E0540F827500568FB
:1032000025404C6804F00304B4402C4304604C682F
:1032100014F0805FAAD02D4CD4F8F45045F002058C
:10322000C4F8F450D4F8F44004F002040194019C72
:103230009D08AE1C234C54F8267003F00304A6002E
:103240000F24B44027EA0407214CA0423FF456AFB4
:1032500004F58064A04222D004F58064A04220D00E
:1032600004F58064A0421ED004F58064A0421CD006
:1032700004F58064A0421AD004F58064A04218D0FE
:1032800004F58064A04216D004F58064A04214D0F6
:1032900004F58064A0423FF42FAF0A242FE70124F5
:1032A0002DE702242BE7032429E7042427E705243C
:1032B00025E7062423E7072421E708241FE703B0B6
:1032C000F0BD00BF000400588000005800440258C0
:1032D000000002580AB1816170470904816170479A
:1032E00008B54FF0B043D3F88830034200D108BD91
:1032F0004FF0B043C3F8880003F05CFBF7E7000031
:10330000002800F0298108B5024690F83530DBB27C
:10331000022B03D080234365012008BD0368904839
:1033200090498B4218BF83420CBF0121002166D017
:103330003030834263D01830834260D018308342EB
:103340005DD0183083425AD01830834257D018309D
:10335000834254D000F55670834250D018308342D7
:103360004DD0183083424AD01830834247D01830AD
:10337000834244D01830834241D0183083423ED03B
:10338000183083423BD0196821F00E011960136890
:10339000A0F5956073498B4218BF83426AD0724989
:1033A0008B4267D018318B4264D018318B4261D088
:1033B00018318B425ED018318B425BD018318B4272
:1033C00058D001F556718B4254D018318B4251D0F0
:1033D00018318B424ED018318B424BD018318B4272
:1033E00048D018318B4245D018318B4242D0183129
:1033F0008B423FD0196821F0010119603EE00420A2
:1034000082F8350081BB584A93422DD0183293423E
:103410002AD01832934227D01832934224D018323F
:10342000934221D0183293421ED002F55672934235
:103430001AD01832934217D01832934214D018324F
:10344000934211D0183293420ED0183293420BD0CF
:103450001832934208D01832934205D01A6822F0ED
:1034600001021A60002058E71A6822F001021A606F
:10347000002052E7196821F00101196013683848EB
:1034800038498B4218BF834242D018318B423FD01B
:1034900018318B423CD018318B4239D018318B42D5
:1034A00036D018318B4233D018318B4230D001F5F1
:1034B00056718B422CD018318B4229D018318B4257
:1034C00026D018318B4223D018318B4220D01831AE
:1034D0008B421DD018318B421AD018318B4217D035
:1034E00022498B4214D014318B4211D014318B42BB
:1034F0000ED014318B420BD014318B4208D01431D2
:103500008B4205D014318B4202D014318B4217D13B
:10351000116E0B6823F480730B60906DD36D03F014
:103520001F0101238B404360536E916E5960D36E2F
:1035300033B1196821F480711960136F516F5960AC
:10354000002382F83430012382F83530136D2BB11B
:10355000104698470020E0E6012070470020DCE696
:103560001000024028000240400002400854025867
:10357000134BDB6813F0040F07D1114BDB6803F02A
:10358000070383421AD00120704710B50C4AD36854
:1035900023F007031843D06000F076F80446084B88
:1035A0005B6813F4005F07D100F06EF8001BB0F504
:1035B0007A7FF4D9012000E0002010BD0020704780
:1035C00000480258104B1B780BB90120704710B50A
:1035D00004464FF47A70B0FBF3F30C4A1068B0FB6A
:1035E000F3F0FDF783FC68B90F2C01D901200AE044
:1035F000002221464FF0FF30FDF738FC044B1C60E1
:10360000002000E0012010BD00000020400200204A
:103610000400002010B50320FDF716FCFEF7EEFABB
:103620000F498B69C3F303230E4AD35C03F01F03D6
:10363000D8408B6903F00F03D35C03F01F0320FA1B
:1036400003F3094A1360094B18600020FFF7BAFF23
:1036500010B10124204610BD0446FDF7E3FBF9E755
:1036600000440258D0A60008440200204002002076
:10367000034B1B78034A11680B441360704700BF6B
:1036800000000020EC040020014B1868704700BFC8
:10369000EC04002038B50446FFF7F6FF0546B4F108
:1036A000FF3F02D0044B1B781C44FFF7EDFF401B8B
:1036B000A042FAD338BD00BF00000020014B1868BB
:1036C000000C70470010005C0268136823F49073CC
:1036D000136002689168044B0B4093602023C0F88C
:1036E00084300023C3667047FEFFFFEFD0F88430BC
:1036F000202B40F08380B2FA82F35B09002908BFD7
:103700000123002B7CD190F87C30012B7AD001234F
:1037100080F87C308165A0F85C20A0F85E20002352
:10372000C3668368B3F5805F06D0A3B9036973B934
:10373000FF23A0F8603014E0036923B940F2FF13BF
:10374000A0F860300DE0FF23A0F8603009E07F238F
:10375000A0F8603005E0B3F1805F21D00023A0F82D
:1037600060300023C0F888302223C0F8843001681C
:103770008B6843F001038B60436EB3F1005F19D097
:103780008368B3F5805F33D01F4BC366002380F896
:103790007C300268136843F4907313600020704714
:1037A00003691BB97F23A0F86030DAE73F23A0F854
:1037B0006030D6E7B0F868309342E1D88368B3F55B
:1037C000805F0FD0114BC366002380F87C30026805
:1037D000136843F4807313600268936843F0805366
:1037E0009360DBE70369002BECD1094BC366EBE781
:1037F0000369002BC8D1074BC366C7E70220704797
:10380000012070470220704737380008053900084A
:10381000B13900089F380008704708B501680A6888
:1038200022F040020A602022C0F8802000220267B5
:10383000FFF7F2FF08BD08B5B0F86030D0F884207B
:10384000222A05D00268936943F00803936108BDFA
:103850000268516ADBB2826D0B401370836D0133D5
:103860008365B0F85E309BB2013B9BB2A0F85E303E
:10387000B0F85E309BB2002BE9D10268136823F4E4
:10388000907313600268936823F001039360202310
:10389000C0F884300023C366FDF7A0F8D7E708B569
:1038A000B0F86020D0F88430222B05D002689369EC
:1038B00043F00803936108BD03685B6A816D1340A0
:1038C0000B80836D02338365B0F85E309BB2013BA1
:1038D0009BB2A0F85E30B0F85E309BB2002BEAD10C
:1038E0000268136823F4907313600268936823F0EE
:1038F000010393602023C0F884300023C366FDF7E2
:103900006DF8D8E770B50446B0F86060D0F8843040
:10391000222B05D00268936943F00803936170BDC0
:10392000B0F8685013E02268136823F480731360C2
:10393000226891681C4B0B4093602023C4F88430AC
:103940000023E3662046FDF749F8013DADB2ADB175
:103950002368596AF3B2A26D0B401370A36D013353
:10396000A365B4F85E309BB2013B9BB2A4F85E3015
:10397000B4F85E309BB2002BE7D1D4E7B4F85E30E8
:103980009BB2002BCBD0B4F868209A42C7D92268EA
:10399000936823F080539360044BE36622681368B6
:1039A00043F020031360BAE7FEFFFFEF373800084B
:1039B00070B50446B0F86060D0F88430222B05D092
:1039C0000268936943F00803936170BDB0F86850D2
:1039D00013E02268136823F48073136022689168EF
:1039E0001C4B0B4093602023C4F884300023E36613
:1039F0002046FCF7F3FF013DADB2A5B123685B6A39
:103A0000A26D33401380A36D0233A365B4F85E301A
:103A10009BB2013B9BB2A4F85E30B4F85E309BB21F
:103A2000002BE8D1D5E7B4F85E309BB2002BCCD0A8
:103A3000B4F868209A42C8D92268936823F080536A
:103A40009360054BE3662268136843F0200313601C
:103A5000BBE700BFFEFFFFEF9F3800087047000084
:103A600070B504460168CB690D68886840F60F029E
:103A70001A4008D113F0200F05D015F0200F30D1D7
:103A800010F0805F2DD12AB16D4A02402FD16D4ECA
:103A900035422CD113F4801F03D010F4800F40F076
:103AA000B48013F0800F07D015F0800F40F0B48081
:103AB00010F4000F40F0B08013F0400F03D015F069
:103AC000400F40F0B08013F4000F03D015F0804F8A
:103AD00040F0AD8013F0807F02D0002DC0F2AB80AB
:103AE00070BDE36E002BFBD020469847F8E713F03B
:103AF000010F09D015F4807F06D001260E62D4F89C
:103B000088103143C4F8881013F0020F0BD010F066
:103B1000010F08D0216802260E62D4F8881041F007
:103B20000401C4F8881013F0040F0BD010F0010F3B
:103B300008D0216804260E62D4F8881041F00201F2
:103B4000C4F8881013F0080F0BD015F0200F00D127
:103B50003AB1226808211162D4F888200A43C4F8D7
:103B6000882013F4006F0CD015F0806F09D0226804
:103B70004FF400611162D4F8882042F02002C4F8AA
:103B80008820D4F88820002AAAD013F0200F09D06A
:103B900015F0200F02D110F0805F03D0E36E0BB15F
:103BA00020469847D4F8882023689B6813F0400F7C
:103BB00002D112F0280F21D02046FFF785FD23689F
:103BC0009A6812F0400F15D09A6822F040029A606D
:103BD000A36F5BB11C4A1A65A06FFFF791FB002829
:103BE0003FF47EAFA06F036D984779E72046FFF75B
:103BF00035FF75E72046FFF731FF71E72046FFF7F5
:103C00002DFF0023C4F888306AE74FF480130B625D
:103C1000204600F0F5FC63E7236F002B3FF460AF14
:103C2000204698475CE72046FFF7F7FD58E7204617
:103C300000F0E8FC54E7204600F0E3FC50E700BF4A
:103C400001000010200100044D3C000808B5806B05
:103C50000023A0F85E30A0F85630FFF7FFFE08BD45
:103C60002DE9F04186B00446016883680269134378
:103C700042691343C2691343426E13430868884A7A
:103C800002401A430A602268536823F44053E168F3
:103C90000B435360A1692268824B9A4201D0236A88
:103CA00019439068804B03400B4393602268D36AAA
:103CB00023F00F03616A0B43D36222687B4B9A4265
:103CC00021D07B4B9A4200F08C807A4B9A4200F0D4
:103CD000A280794B9A4200F0B580784B9A4200F06E
:103CE000C880774B9A4200F0F380764B9A4200F0FE
:103CF0001881754B9A4200F02B816A4B9A4200F072
:103D00003E81802333E0714B5B6D03F03803282B39
:103D100065D8DFE813F029006400640064006400E3
:103D20006400640064004C0164006400640064008A
:103D30006400640064002B0064006400640064009C
:103D40006400640064005E00640064006400640059
:103D50006400640064006000640064006400640047
:103D60006400640064006200012300E008234D4900
:103D70008A4200F02E81E069B0F5004F00F0B0817A
:103D8000202B00F20982202B00F25D82DFE813F085
:103D90002A0230025B025B0233025B025B025B02BF
:103DA00038025B025B025B025B025B025B025B024E
:103DB0003D025B025B025B025B025B025B025B0239
:103DC0005B025B025B025B025B025B025B025B020B
:103DD00049021023CBE72023C9E74023C7E780230C
:103DE000C5E73A4B5B6D03F00703052B11D8DFE8FD
:103DF00013F00600E00008000A000C000E0000238B
:103E0000B5E70823B3E71023B1E72023AFE740234A
:103E1000ADE78023ABE72D4B5B6D03F00703052B6C
:103E20000ED8DFE803F003C80507090B00239EE75F
:103E300008239CE710239AE7202398E7402396E77E
:103E4000802394E7214B5B6D03F00703052B0ED80D
:103E5000DFE803F003B30507090B002387E7082316
:103E600085E7102383E7202381E740237FE7802332
:103E70007DE7164B5B6D03F00703052B0ED8DFE8DB
:103E800003F0039E0507090B002370E708236EE784
:103E900010236CE720236AE7402368E7802366E766
:103EA000F369FFCF000C0058FFF4FF110010014030
:103EB0000044004000480040004C004000500040DA
:103EC0000014014000780040007C0040004402588B
:103ED0007E4B5B6D03F03803282B20D8DFE803F01E
:103EE000151F1F1F1F1F1F1F711F1F1F1F1F1F1F9A
:103EF000171F1F1F1F1F1F1F191F1F1F1F1F1F1FE0
:103F00001B1F1F1F1F1F1F1F1D0001232FE708233B
:103F10002DE710232BE7202329E7402327E78023E1
:103F200025E76A4B5B6D03F00703052B0ED8DFE82E
:103F300003F0034A0507090B002318E7082316E7D7
:103F4000102314E7202312E7402310E780230EE715
:103F50005E4B5B6D03F00703052B0ED8DFE803F023
:103F600003350507090B002301E70823FFE61023AB
:103F7000FDE62023FBE64023F9E68023F7E603F580
:103F80000E339B6D03F00703052B0ED8DFE803F01B
:103F9000031F0507090B0223E9E60823E7E61023C0
:103FA000E5E62023E3E64023E1E68023DFE6042381
:103FB000DDE60423DBE60423D9E60423D7E6042365
:103FC000D5E60423D3E60423D1E60423CFE6042375
:103FD000CDE6202B27D8022BC0F02781023B1E2BD9
:103FE00000F22581DFE813F052002301580023017D
:103FF000230123015D002301230123012301230168
:104000002301230162002301230123012301230152
:104010002301230123012301230123012301230180
:10402000230123016E00402B2ED14FF40040626A21
:10403000274B33F81220B0FBF2F3656805EB45011E
:10404000994200F2F680B3EB053F00F2F4804FF0A6
:10405000000892B200234146FCF7A0FA0F0247EA9B
:104060001067060268082A464346301847F10001E7
:10407000FCF794FAA0F54072164B9A4200F2DD80EC
:104080002368D8604046A2E00120A0E0FEF722FEAF
:104090000028CCD100209AE003A8FEF72DFE04985A
:1040A000F6E76846FEF726FF0198F1E7074B1B6825
:1040B00013F0200F08D0054B1B68C3F3C10306485B
:1040C000D840E5E70548B2E70348B0E700440258A6
:1040D000F0A50008FFFC0F000090D00300093D0090
:1040E000202B15D8202B00F2AA80DFE803F032380D
:1040F000A8A83BA8A8A840A8A8A8A8A8A8A845A878
:10410000A8A8A8A8A8A8A8A8A8A8A8A8A8A851002E
:10411000402B1CD1626A4E4B33F81230B0FBF3F0E7
:104120006268530803EB4000B0FBF2F080B2A0F1EC
:1041300010024FF6EF739A4200F2838020F00F03D3
:10414000C0F3420018432368D86000203FE00120FC
:104150003DE0FDF7B9FF0028DCD1002037E0FDF796
:10416000C5FFF8E703A8FEF7C7FD0498F3E7684624
:10417000FEF7C0FE0198EEE7364B1B6813F0200FE8
:1041800008D0344B1B68C3F3C1033348D840E2E77F
:104190003248BFE73048BDE7402B17D14FF400400D
:1041A000626A2B4B33F81230B0FBF3F0636800EB1C
:1041B0005300B0FBF3F080B2A0F110024FF6EF73A2
:1041C0009A4242D82368D860002000E001200123F1
:1041D000A4F86A30A4F868300023E366236706B0C9
:1041E000BDE8F081FDF770FF0028D9D10020EEE78F
:1041F000FDF77CFFF8E703A8FEF77EFD0498F3E7E0
:104200006846FEF777FE0198EEE7124B1B6813F045
:10421000200F08D00F4B1B68C3F3C1030E48D840D2
:10422000E2E70E48BCE70C48BAE70120CFE70120DF
:10423000CDE70120CBE70120C9E70120C7E7012036
:10424000C5E70120C3E70120C1E70120BFE700BFA8
:10425000F0A50008004402580090D00300093D007A
:10426000836A13F0010F06D00268536823F4003309
:10427000C16A0B435360836A13F0020F06D00268D1
:10428000536823F48033016B0B435360836A13F04C
:10429000040F06D00268536823F48023416B0B435C
:1042A0005360836A13F0080F06D00268536823F442
:1042B0000043816B0B435360836A13F0100F06D0E9
:1042C0000268936823F48053C16B0B439360836A45
:1042D00013F0200F06D00268936823F40053016C9A
:1042E0000B439360836A13F0400F0AD0026853684F
:1042F00023F48013416C0B435360436CB3F5801F70
:104300000BD0836A13F0800F06D00268536823F441
:104310000023C16C0B43536070470268536823F459
:10432000C003816C0B435360EBE72DE9F84305466E
:104330000F4616469946DDF820802C68E46937EA76
:1043400004030CBF01240024B44241D1B8F1FF3F63
:10435000F3D0FFF799F9A0EB0900404524D8B8F154
:10436000000F21D02B681A6812F0040FE5D0DA692B
:1043700012F4006FE1D04FF400621A622A681368E9
:1043800023F4D07313602A68936823F001039360C9
:104390002023C5F88030C5F88430C5F88830002364
:1043A00085F87C30032014E02A68136823F4D07366
:1043B00013602A68936823F0010393602023C5F8F3
:1043C0008030C5F88430002385F87C30032000E07D
:1043D0000020BDE8F8832DE9F04182B01E46D0F8F8
:1043E0008030202B5CD104460D469046B2FA82F311
:1043F0005B09002908BF0123002B55D190F87C30C0
:10440000012B53D0012380F87C300023C0F8883082
:104410002123C0F88030FFF737F90746A4F854800D
:10442000A4F85680A368B3F5805F05D04FF000086C
:10443000002384F87C3014E0236913B14FF00008A6
:10444000F6E7A8460025F3E738F8023B2268C3F3F5
:1044500008039362B4F8562092B2013A92B2A4F8DB
:104460005620B4F856309BB273B100963B460022FA
:1044700080212046FFF759FFD0B9002DE4D015F870
:10448000012B23689A62E5E700963B460022402113
:104490002046FFF74AFF68B92023C4F8803000E0C7
:1044A000022002B0BDE8F0810120FAE70220F8E71F
:1044B0000320F6E70320F4E730B583B00446002379
:1044C000C0F88830FFF7E0F8054623681B6813F052
:1044D000080F0ED123681B6813F0040F17D1202397
:1044E000C4F88030C4F88430002084F87C0003B025
:1044F00030BD6FF07E430093034600224FF400115D
:104500002046FFF712FF0028E4D00320EFE76FF00A
:104510007E4300932B4600224FF480012046FFF794
:1045200004FF0028DBD00320E1E778B310B5044690
:10453000D0F880300BB32423C4F88030226813688D
:1045400023F0010313602046FFF78AFB012813D0F4
:10455000A36ABBB92268536823F49043536022686E
:10456000936823F02A0393602268136843F00103E1
:1045700013602046FFF7A0FF10BD80F87C30FCF7E9
:104580009DFBD8E72046FFF76BFEE3E7012070476D
:1045900084B00346184A92E8030004AA02E9030023
:1045A00016496A4603C982E803005A6E32B90122ED
:1045B000A3F86A20A3F8682004B0704719688A68D5
:1045C000C2F34262886804A901EB507010F8081C1D
:1045D000090110F8100C91FBF0F1A3F86A1004A97E
:1045E0000A4412F8081C090112F8102C91FBF2F28F
:1045F000A3F86820E0E700BF58A4000808A6000858
:1046000070477047704790F87C30012B18D0012319
:1046100080F87C302423C0F8803003681A68196859
:1046200021F00101196022F0005200234366016865
:104630000A602022C0F8802080F87C30184670473D
:104640000220704738B590F87C30012B1DD004460D
:10465000012380F87C302423C0F8803003681D6873
:104660001A6822F001021A600268936823F060431E
:1046700019439160FFF78CFF23681D602023C4F865
:104680008030002084F87C0038BD0220FCE738B57B
:1046900090F87C30012B1DD00446012380F87C303B
:1046A0002423C0F8803003681D681A6822F00102D4
:1046B0001A600268936823F0606319439160FFF702
:1046C00067FF23681D602023C4F88030002084F831
:1046D0007C0038BD0220FCE7C0F387000023094AB4
:1046E00052699A420AD9074A126912F82320824273
:1046F00001D00133F3E70B60002070476FF0060034
:10470000704700BFF004002010B40F4A5369D4680A
:10471000234452689A4211D90B4B1A69141F1C6129
:10472000800802F8040C1A69106861F31F201060F9
:104730005A6901325A615DF8044B7047024B6FF0C1
:1047400003029A61F7E700BFF004002030B40024B0
:10475000A24207DD0D5D854201D00134F8E71C70EF
:10476000012000E0002030BC704700B583B0030A90
:104770008DF804308DF805000222694601A802F088
:1047800007F89DF800009DF8013043EA002003B0CF
:104790005DF804FB00B583B08DF804000122694682
:1047A00001A801F0F5FF9DF8000003B05DF804FBDF
:1047B00000B583B0030E8DF80430030C8DF805307E
:1047C000030A8DF806308DF80700042269460DEBC8
:1047D000020001F0DDFF9DF800009DF801301B0490
:1047E00043EA00639DF8020043EA00239DF80300BA
:1047F000184303B05DF804FB38B504460D4601F0DC
:10480000D7FF2020FFF7C6FF2046FFF7AEFF01F0DD
:10481000D9FF01F0CDFF2D20FFF7BCFFA4F5805498
:10482000A4B242F214039C4205D82846FFF7C0FF09
:1048300001F0C8FF38BDA8B2FFF797FFF8E710B541
:10484000044601F0B5FF2020FFF7A4FF2046FFF744
:104850008CFF01F0B7FF01F0ABFF6D20FFF79AFF6F
:104860000020FFF797FFA4F58054A4B242F214038E
:104870009C4207D80020FFF79BFF044601F0A2FFEF
:10488000204610BD0020FFF770FF0446F6E710B584
:104890000C4680B2FFF7D3FF2060002010BD00005F
:1048A00010B582B0044601A9FFF716FF50B90A4BB4
:1048B0001B69019A53F82230C3F317230093009821
:1048C00002B010BD69462046FFF7E1FF009920467F
:1048D000FFF71AFFF3E700BFF0040020094A53690D
:1048E000D1680B4452689A4207D9064B9A6842F83D
:1048F0002100DA680132DA607047024B6FF0030280
:104900009A617047F0040020B0F5085F04D3194B9A
:104910006FF004029A61704730B583B004460D46CB
:1049200001A9FFF7D9FEA8B9124B1B69019A53F8E8
:10493000221065F31F2143F82210A008000600F0A2
:10494000FE4025F07F41084340F00040FFF7C6FFDE
:1049500003B030BD29462046FFF7D6FEA00800066A
:1049600000F0FE4025F07F41084340F00040FFF793
:10497000B5FFEDE7F004002001290DD9074B596080
:1049800098606FF040420A4400EB820018610022F8
:10499000DA605A619A611A70704700BFF004002013
:1049A00010B1054A9268026011B1034BDB680B60DD
:1049B000014B9869704700BFF004002018B9054BFF
:1049C00000221A707047034B0022DA609A610122BC
:1049D0001A707047F004002030B587B004460D46C9
:1049E000C368012B20D01BBB2268022A20D0364B83
:1049F00093E8030002908DF80C10344B93E8030009
:104A000004908DF814100DF10703052202A92079F6
:104A1000FFF79CFE90B19DF8073006AA134413F8E7
:104A2000083C2B7001200BE00268022ADBD1DEE794
:104A300013B92268022A05D0012B23D00020287048
:104A400007B030BD224B1B68ADF808301B0C8DF849
:104A50000A30204B1B68ADF810301B0C8DF812305B
:104A60000DF10703032202A92079FFF76FFE00284A
:104A7000E4D09DF8073006AA134413F8083C2B70C5
:104A80000120DDE72368022BD8D0134B93E8030005
:104A90000290ADF80C10114B93E803000490ADF8B0
:104AA00014100DF10703062202A92079FFF74EFE2C
:104AB0000028C3D09DF8073006AA134413F8083C19
:104AC0002B700120BCE700BF14A600081CA600083C
:104AD00024A6000828A600082CA6000834A6000872
:104AE00030B587B004460D46C368012B1CD0FBB916
:104AF0002268022A1CD040F60733ADF8083040F295
:104B00000A53ADF810300DF10703022202A92079F3
:104B1000FFF71CFE90B19DF8073006AA134413F866
:104B2000083C2B7001200BE00268022ADFD1E2E78B
:104B300013B92268022A05D0012B1CD0002028704E
:104B400007B030BD40F60933ADF8083040F60F230A
:104B5000ADF810300DF1070302A92079FFF7F6FD3B
:104B60000028EBD09DF8073006AA134413F8083C40
:104B70002B700120E4E72368022BDFD00E4B93E873
:104B800003000290ADF80C100C4B93E80300049066
:104B9000ADF814100DF10703062202A92079FFF7E2
:104BA000D5FD0028CAD09DF8073006AA134413F893
:104BB000083C2B700120C3E73CA6000844A600086F
:104BC000F0B599B084460F464FF0000ECDF85CE08A
:104BD000724E0AAC35460FCD0FC40FCD0FC40FCDAA
:104BE0000FC42B68236006AC06F134030FCB84E8B6
:104BF0000F00C7F800E0BCF1000F29D064463FB3B6
:104C0000DCF80C300B2B23D8DCF80820022A1FD844
:104C1000DCF8101003291BD8DCF80000042815D894
:104C2000DFE800F0031837805100DCF8043003EBB4
:104C300083039B009CED077A07EE903AF8EE677AC3
:104C400067EE877AFCEEE77ACDED177A179B3B602B
:104C500019B0F0BDDCF8041018AB03EB820252F877
:104C6000483C01EB81029200283203FB02F314332B
:104C700007EE903A9CED077AF8EE677A67EE877A4E
:104C8000B6EE007A77EE877AFCEEE77ACDED177A0A
:104C9000DCE7DCF8042018A901EB830353F8383C67
:104CA00002FB0333013317930122CCF80020CCF828
:104CB000043017A96046FFF783FF02232360179B88
:104CC0000F331793C2E79CF818300493DCF80830D0
:104CD0000193DCF80C3002930DF1020101A8FFF7FB
:104CE0007BFE054618B19DF80250013DEDB20DF175
:104CF000030101A8FFF7F4FE28B19DF803301D441D
:104D0000EDB2013DEDB20223236063682B44636082
:104D100017A92046FFF754FF0423236063685D1B37
:104D2000656093E7DCF81430032B0AD8DFE803F062
:104D3000170F02260023CCF8003017A96046FFF7B2
:104D40003FFF03232360179B193317937EE701234B
:104D5000CCF8003017A96046FFF732FFF1E79CF866
:104D600019303BB10223CCF8003017A92046FFF7D9
:104D700027FFE6E70423CCF80030F6E70123CCF860
:104D800000301944DCF8043003FA01F1CCF80410C7
:104D900017A96046FFF714FFD3E700BF60A400081F
:104DA00070B52DED028B04460D46037C002B5DD0C3
:104DB00090ED017AD0ED027AB4EEE77AF1EE10FAD6
:104DC0002CD5436901334361C268934223D0B7EEC7
:104DD000C78A666987EE870AB7EEC00A04F07CFED0
:104DE00007EE906AB8EE671B21EE001BE368013BFB
:104DF00007EE903AB8EE677B81EE071BB2EE040B2C
:104E000004F002FB28EE008BB7EEC88B85ED008A1C
:104E1000BDEC028B70BD00234361D8E74369013BC1
:104E20004361C268934201D3013A4261B7EEE78A17
:104E3000666987EE270AB7EEC00A04F04DFEE36804
:104E4000013B07EE903AB8EE677B80EE071B07EE5A
:104E5000906AB8EE677B27EE011BB2EE040B04F0FC
:104E6000D3FA28EE008BB7EEC88BCFE7D0ED017AEE
:104E700090ED027AF4EEC77AF1EE10FA20D542698D
:104E800001324261C3689A4217D0B7EEE78A94EDC7
:104E9000056A77EE677AB7EEE77AB8EE466B26EEEC
:104EA000077B013B06EE903AB8EE666B87EE065B39
:104EB00038EE058BB7EEC88BA8E700224261E4E725
:104EC0004269013A4261C3689A4201D35A1E426163
:104ED000B7EEC78A94ED056A77EEC77AB7EEE77A40
:104EE000B8EE466B26EE077B013B06EE903AB8EE35
:104EF000666B87EE065B38EE058BB7EEC88B85E7F1
:104F000008B50A46002103F01FFB08BD86B0D1EDAD
:104F1000007AF8EEE77A67EEA76A91ED017AB8EECB
:104F2000C77A27EE076A76EE866A90ED006AB8EED9
:104F3000C66A27EE865AD0ED015AF8EEE55A67EEBA
:104F4000254A35EE245AC5EE264ACDED024A67EED3
:104F5000A57A27EE067A77EEC77A87EEA67A8DEDE8
:104F6000037A0399029806AB03E903009DED040A56
:104F7000DDED050A06B0704708B590ED000A20EE99
:104F8000000AD0ED017A67EEA77A30EE270AB7EE75
:104F9000C00A04F0D9FDB7EEC00B08BD08B590ED0E
:104FA000010A90ED001AB7EEC11AB7EEC00A04F07C
:104FB00091FDB7EEC00B08BD70B506460D4602293F
:104FC0001FD801F0F5FB2020FFF7E4FB42F26C0054
:104FD000FFF7CBFB01F0F6FB00240FE001F0E8FB4C
:104FE0006D20FFF7D7FB0020FFF7D4FB0020FFF771
:104FF000DFFB46F8240001F0E5FB0134AC42EDD3C1
:1050000026E001F0D5FB5F20FFF7C4FB0024052C50
:1050100004D80020FFF7BEFB0134F8E7002405E0C8
:105020000020FFF7C5FB46F824000134AB1EA34265
:10503000F6D8651C4FF04430FFF7BAFB46F8240061
:105040004FF04430FFF7B4FB46F8250001F0BAFBFF
:1050500070BD000008B5054B1B78012B02D0FFF78F
:10506000CBFB08BDFFF750FCFBE700BFF0040020BE
:10507000F0B585B0054616460A291AD80C4602290D
:1050800002D90831C90015E06F46114B0FCB07C795
:1050900027F8023B1B0C3B70042E08D804EB84035A
:1050A00004AA1344334413F8101CC90002E0F82189
:1050B00000E0F82131432DB142F2F400FFF7CAFFBE
:1050C00005B0F0BD42F2F800FFF7C4FFF8E700BFFB
:1050D000A4A4000808B5054B1B78012B02D0FFF7EC
:1050E000AEFB08BDFFF7DCFBFBE700BFF0040020D0
:1050F00010B59CB070222049684603F017FA1F4B88
:105100000024DC605C619C611C7001F05BFB09E0C9
:105110001CAB03EBC40353F86C1C33F8700CFFF7A3
:1051200099FF01340D2CF3D940F20440FFF7D2FF70
:10513000014645F2015398420BD045F20253984282
:105140000ED0B0F5AA4F12D10D4B00221A701CB030
:1051500010BD0B4B01221A700A4803F0FDF9F6E767
:10516000074B01221A70074803F0F6F9EFE70648EB
:1051700003F0F2F9FEE700BFB4A40008F004002039
:10518000D00200204CA6000864A6000838B50446EA
:105190000D464FF40050FFF79DFF012D14D014F081
:1051A000200F03D040F0200024F0200414F4002F3E
:1051B00003D040F4002024F4002420EA04014FF43A
:1051C0000050FFF747FF38BD14F0200F03D020F048
:1051D000200024F0200414F4002F03D020F4002039
:1051E00024F4002444EA0001E9E708B540EA81011B
:1051F00042F2F020FFF72EFF08BD10B504464FF431
:105200000050FFF767FF20F0200123780BB941F031
:1052100020014FF40050FFF71DFF4FF40650FFF739
:1052200059FF01466378012B27D0A378012B27D0A3
:10523000E378012B27D02379012B27D0637A012B28
:1052400027D0A37A012B27D0E37A012B27D0237B09
:10525000012B27D04FF40650FFF7FCFEA37923B3B0
:10526000002163790BB941F00101E379012B1ED0D4
:1052700042F25000FFF7EEFE10BD40F00101D4E70E
:1052800041F01001D4E741F00401D4E741F02001DE
:10529000D4E741F48071D4E741F00201D4E741F052
:1052A0000801D4E741F04001D4E70221D9E741F0F9
:1052B0000401DDE700B585B001238DF802308DF8DB
:1052C00001308DF800308DF808308DF805308DF8FC
:1052D000063000238DF80C308DF80B308DF80A3035
:1052E0008DF809308DF804308DF803308DF80730D3
:1052F0006846FFF782FF05B05DF804FB10B5044671
:10530000016842F25010FFF7A5FE616842F25810A2
:10531000FFF7A0FEA16842F25410FFF79BFEE16880
:1053200042F25C10FFF796FE4FF4803142F20C001F
:10533000FFF790FE10BD08B50368012B0DD00021CA
:105340004368012B0CD083685B0003F4FF7319439F
:1053500042F21000FFF77EFE08BD4FF48051EFE7E8
:1053600041F00101EFE718B310B504460369022BC1
:1053700021D90B2B22D84369052B22D8016842F290
:10538000FC00FFF767FEA368616841EA4311237BD5
:10539000012B0AD042F2F000FFF75CFE626921693E
:1053A0000020FFF765FE002010BD41F01001F1E77D
:1053B0006FF0020070476FF00100F5E76FF0010039
:1053C000F2E76FF00100EFE710B504460368022B27
:1053D00015D0032B28D0016B42F24800FFF73AFEAC
:1053E0002379012B3FD000236279012A3DD0216827
:1053F00043EA410142F21400FFF72CFE10BD016A9E
:1054000042F23000FFF726FE616A42F23C00FFF7ED
:1054100021FEA16A42F23800FFF71CFEE16A42F267
:105420003400FFF717FEDBE7816842F21800FFF750
:1054300011FEE16842F21C00FFF70CFE216942F206
:105440002000FFF707FE616942F22800FFF702FE25
:10545000A16942F22400FFF7FDFDE16942F22C0050
:10546000FFF7F8FDBCE72023BEE743F01003BEE7DB
:1054700010B504461030FFF75EFF04F15000FFF74F
:1054800072FF2046FFF73AFF04F11C00FFF79CFF74
:1054900010BD08B5C0F30B0142F24800FFF7DAFD7A
:1054A000002008BD10B52DED028BF0EE408AB0EE65
:1054B000608A1A4B1B78012B28D01A24B5EE408A3B
:1054C000F1EE10FA26D00120A4F12001C4F120034E
:1054D00000FA01F120FA03F3A0401943FBF720F88A
:1054E00000EE100A20EE280AC0EE087AB6EE007A26
:1054F00077EE877AFCEEE77A17EE903A1A2C07D00F
:105500006FF07F40984206D3184604E01E24D5E78A
:105510000348F7E70020BDEC028B10BDD00200204D
:10552000FFFF0F0008B5FFF7BDFF014642F2300054
:10553000FFF790FD08BD08B501F03F01C0F30B0077
:1055400040EA013142F22010FFF784FD08BD08B5A2
:1055500001F03F01C0F30B0040EA013142F22C1090
:10556000FFF778FD08BD10B504464268836819014D
:1055700041EA8211C36841EAC301436941EA8301F8
:10558000037E0BB941F00101637E0BB941F00201CA
:1055900023687BB942F22810FFF75CFD217F608B06
:1055A000FFF7C9FF216941F0200142F22410FFF703
:1055B00051FD10BD42F23410FFF74CFD217F608B8E
:1055C000FFF7C5FF216941F0200142F23010FFF7DB
:1055D00041FDEEE710B50446037EF3B10023627E81
:1055E0000AB943F001032169042918D043EAC10133
:1055F000E36841EA4311A36841EA8321636841EA11
:105600004331236873B942F2EC00FFF723FD61696F
:1056100042F2E400FFF71EFD10BD0223DFE743F076
:105620000401E5E742F2E800FFF714FD616942F288
:10563000E000FFF70FFDEFE710B50446FFF793FF1B
:1056400004F12000FFF7C6FF10BD08B5062828D8D2
:10565000DFE800F004090E13181D220042F2740066
:10566000FFF738FD08BD4FF40250FFF733FDF9E7AF
:1056700042F28400FFF72EFDF4E742F27800FFF7D4
:1056800029FDEFE742F27C00FFF724FDEAE742F252
:10569000C810FFF71FFDE5E74FF40750FFF71AFDAD
:1056A000E0E70020DEE708B50168436841EA03212E
:1056B000836841EA034142F2A810FFF7CBFC08BD22
:1056C00010B5044642F24400FFF704FD00F08001EB
:1056D000E0680843237C012B12D0637C012B12D09D
:1056E000616840EA0120216840EA0130A16840EA8F
:1056F000813142F24400FFF7ADFCA37C33B910BD09
:1057000040F01000E9E740F04000E9E701214FF4E4
:105710008030FFF73BFDF2E710B50446018842F206
:10572000A800FFF797FC618842F2AC00FFF792FCFB
:10573000A18842F2B000FFF78DFCE18842F2B4008C
:10574000FFF788FC10BD08B5037A012B0BD00023AE
:10575000416843EA0113016843EAC11142F2C410EF
:10576000FFF778FC08BD0123F2E710B5044642F2CA
:105770004400FFF7AFFC6368032B12D020F08001D8
:1057800042F24400FFF766FC61680905236841EABC
:105790000311237A012B0CD042F2D000FFF75AFC00
:1057A00010BD40F0800142F24400FFF753FC00219D
:1057B000ECE741F00101EFE710B50446FFF773FF96
:1057C00004F10C00FFF77CFF04F12000FFF7A4FFB9
:1057D00004F12800FFF7C9FF04F13400FFF7B3FF1D
:1057E00010BD10B50446002142F20800FFF732FC5C
:1057F00042F2D810FFF76EFC00F03F00616840EA0B
:105800004120A16840EA811142F2D810FFF722FC42
:105810002169090442F2E010FFF71CFC2378012BF8
:1058200008D00023E16843EA413142F20800FFF763
:1058300011FC10BD4FF40063F4E708B5012907D04F
:10584000002141EA403142F20800FFF703FC08BDA5
:105850004FF40061F5E708B54FF40850FFF73AFC44
:10586000000C08BD38B5044642F20800FFF732FCD0
:105870000546002142F20800FFF7ECFB42F2D81087
:10588000FFF728FC20F03F0343F008032168194389
:1058900042F2D810FFF7DEFBE37983B92379012BBD
:1058A00018D00023A16843EA012142F20400FFF767
:1058B000D1FB294642F20800FFF7CCFB38BD00219E
:1058C00042F20400FFF7C6FB002142F26400FFF73A
:1058D000C1FBE3E70123E5E7B0B138B5054642F285
:1058E000D810FFF7F7FB00F0070028600024EC71E8
:1058F00042F20400FFF7EEFB00F001032B71C0F34E
:105900000720A860204638BD6FF00200704710B530
:10591000044642F20400FFF7DDFB012C06D020F024
:10592000010142F20400FFF795FB10BD40F00101B8
:10593000F7E7032800D9704708B5012181404FF4EB
:105940008660FFF787FB08BD70B50C46551E72B127
:10595000461C014642F2D410FFF77CFB54F8041BAE
:1059600042F27000FFF776FB2A463046EEE770BD44
:1059700010B504460368032B0BD8DFE803F0020ED2
:1059800017208168436843EA014142F2CC10FFF7D7
:1059900061FB237B012B1BD010BD8168436843EA68
:1059A000014142F2E810FFF755FBF2E781684368D6
:1059B00043EA014142F2D010FFF74CFBE9E781686E
:1059C000436843EA014142F2E410FFF743FBE0E79A
:1059D000A26821696068FFF7B7FFDDE708B50146F7
:1059E00042F25400FFF736FB08BD08B542F26800EA
:1059F000FFF770FB08BD10B50446818E40F6080025
:105A0000FFF728FBE18E01F00F0140F60C00FFF7D5
:105A100021FBA18C4FF40160FFF71CFBE18C01F02E
:105A20000F0140F61400FFF715FB218F40F6180018
:105A3000FFF710FB618F01F00F0140F61C00FFF72C
:105A400009FB218D4FF40260FFF704FB618D01F02B
:105A50000F0140F62400FFF7FDFAA18F40F6280061
:105A6000FFF7F8FAE18F01F00F0140F62C00FFF785
:105A7000F1FAA18D4FF40360FFF7ECFAE18D01F02C
:105A80000F0140F63400FFF7E5FAB4F8401040F695
:105A90003800FFF7DFFAB4F8421001F00F0140F6CA
:105AA0003C00FFF7D7FA218E4FF40460FFF7D2FADB
:105AB000618E01F00F0140F64400FFF7CBFA01219F
:105AC00040F61C20FFF7C6FA616801F00301A368E5
:105AD0009B0003F00C031943E268120102F030034B
